:020000040800F2
:10000000B0B4002045010008ED2F00083725000896
:10001000E92F0008791C0008DF44000800000000F8
:10002000000000000000000000000000333B00085A
:100030003121000800000000C5350008673D0008B8
:100040005F0100085F0100085F0100085F01000810
:100050005F0100085F0100085F0100085F01000800
:100060005F0100085F0100085F0100083D1E0008F5
:100070005F010008651E00085F0100085F010008BD
:100080005F0100085F0100085F0100085F010008D0
:100090005F0100085F0100085F0100085F010008C0
:1000A0005F0100085F0100085F0100085F010008B0
:1000B0005F0100085F0100085F0100085F010008A0
:1000C0005F0100085F0100085F0100085F01000890
:1000D0005F0100080D3F00085F0100085F01000894
:1000E0005F0100085F0100085F0100085F01000870
:1000F0005F0100085F0100085F0100085F01000860
:100100005F0100085F0100085F0100085F0100084F
:100110005F0100085F0100085F0100085F0100083F
:100120005F0100085F0100085F0100085F0100082F
:10013000DFF80CD000F042FF00480047456F000890
:10014000B0B400200648804706480047FEE7FEE7B7
:10015000FEE7FEE7FEE7FEE7FEE7FEE7FEE7FEE777
:10016000693D000831010008A0F14101192900D8BA
:100170002030704740EA01039B0703D009E008C91B
:10018000121F08C0042AFAD203E011F8013B00F85C
:10019000013B521EF9D27047D2B201E000F8012BA8
:1001A000491EFBD270470022F6E710B513460A46F7
:1001B00004461946FFF7F0FF204610BD421C10F818
:1001C000011B0029FBD1801A704710B5002200E006
:1001D000521C835C8C5CA34201D1002BF8D1D8B2B5
:1001E000E1B2401A10BD034611F8012B00F8012BB3
:1001F000002AF9D11846704730B50546002003465D
:1002000000E05B1C934205D2EC5CC85C201A01D173
:10021000002CF6D130BD00000FB400B58DB010A990
:1002200009900B9000914FF0FF300A9000200C9045
:1002300005480690054807906A4609A80F9900F0FE
:1002400089FD0DB05DF814FB710D00088F0D0008DD
:100250002DE9FF4F087883B09946FF2805D0491C47
:100260002D2804D00024002008E000200BE0012409
:10027000F9E700EB800003EB4000491C0B78FF2BF3
:10028000F7D104B1404200230293147819461D4669
:100290002D2C01D02B2C04D1521C2D2C13D000243A
:1002A0000294AA461478FF2C0FD00A25A3FB0578E8
:1002B00001FB05814FF0000C03FB0C11521CE319EC
:1002C0004AEB0101EEE70124EAE7814453EA010029
:1002D00002D019F5C87F06DA03980021C0E90011A1
:1002E00007B0BDE8F08F0025AE4E2F46DFF8B8828C
:1002F000184600F03FFECDE90001B9F1000002DA36
:10030000C9F1000400E004460023A74A1AEB030BDE
:1003100042EB045A12E0E00707D02A46334638463B
:10032000414600F0B4FA074688462A46334610464E
:10033000194600F0ACFA05460E466410002CEAD1CE
:10034000DDE90001B9F1000F5A46534606DA00F024
:1003500010FB3A46434600F00CFB05E000F097FA2C
:100360003A46434600F093FA029A0AB181F00041FE
:10037000039AC2E90001B3E72DE9FF4F1F468DB094
:10038000D7E901464FF0FF382E2045464FF00009CF
:100390000B90B9696D1C0E988847396A8246884768
:1003A0000028F6D1BAF1FF3F0AD024F4D064002E21
:1003B00011DDBAF12B0F08D0BAF12D0F0BD102E0ED
:1003C000404611B08DE744F48064B9696D1C0E9805
:1003D00088478246761E6946600501D52D2000E0DB
:1003E0002B208DF8000001F1010B0DF1200809E030
:1003F000B9696D1C0E98884782460F9844F40074C2
:10040000761E0560002E02DDBAF1300FF0D00B9998
:100410008A453ED144F0800406E00F99681CA9F19A
:10042000010944F400740860B9696D1C761E0E98C9
:10043000884782463028F0D02BE00B998A4505D1B9
:10044000200603D444F08004761E18E0504604F0E1
:10045000DFFC08B30DF11301761E44F400748B45E4
:1004600008D2AAF130000BF8010B200607D5A9F13C
:10047000010003E0200602D409F101008146A00535
:1004800002D50F99681C0860B9696D1C0E988847E1
:100490008246002ED1DC53E0002E51DDBAF1650F0B
:1004A00002D0BAF1450F4BD1A00549D5B9696D1CF1
:1004B00024F44074761E0E9888478246002E0CDD88
:1004C0002B2804D0BAF12D0F07D144F48074B969F8
:1004D0006D1C0E9888478246761EE00501D52D21B9
:1004E00000E02B2108F8011BCDF82C8021E00DF154
:1004F0002901761E44F4007488450CD2AAF130001C
:1005000010F0FF0088F8000002D10B99884509D946
:1005100008F1010806E0E00501D5244801E042F2B7
:100520000F708146B9696D1C0E98884782460F98F6
:100530000560002E04DD504604F06AFC0028D6D188
:10054000F9690E988847FF208BF8000088F80000B2
:100550000020069007904B466A4608A906A8FFF7B8
:1005600077FEA00502D46FF001002AE714F0240FF3
:100570000AD0E00714D1DDE906123868031D3B609C
:100580000068C0E900120BE0DDE9060100F034FB71
:100590000146E00704D13868021D3A600068016036
:1005A00028460EE7000014400000F03FF1D8FFFF9E
:1005B000F0B480EA0102D40F4200B2EB410F02D244
:1005C0000246084611464A0042D0C30DDDB2C1F3CF
:1005D000C752AD1A202D35DAC1F3160141F40002DD
:1005E00004B15242C5F1200602FA06F12A41104434
:1005F000B3EBD05F23D0C4B1012DA0EBC35009DC15
:10060000F0BC4FF0004202EAC352DBB200F500003A
:1006100000F025BC400000F1807000EBC350A0F159
:10062000807040EAD170490009E0490841EAC07190
:10063000A0EBC35000F50000400800EBC350F0BC35
:1006400000F004BC6142012202EB4101001BF6E70D
:10065000F0BC704781F00041AAE780F00040A7E7B6
:1006600080EA010210B502F00043400022D04A00A7
:100670001FD0010E01EB1261C0F35600C2F3560207
:1006800040F4000042F40002A0FB022000047F3985
:10069000140400D0401C50EA124001D44000491E0E
:1006A000C2B20C0604EBD010401C4008802A02D0D5
:1006B00003E0002010BD20F00100002900DA002036
:1006C000184310BD30B480EA010202F0004530F05A
:1006D000004221F0004013D090B1C30DD40DC2F3FD
:1006E0001601C0F31600E41A41F4000140F40002C0
:1006F0007D34914201D3641C00E04900002C02DAF1
:1007000030BC002070474FF400000023914201D319
:10071000891A034340084FEA4101F7D151B1914290
:1007200002D14FF0004105E002D24FF0010101E09B
:100730006FF0010103EBC450284430BC00F086BBCD
:100740002DE9FE4F804681EA0300C00F0C46009061
:1007500021F0004123F00045B8EB0200A94105D289
:100760004046214690461C460B46024623F0004078
:10077000104347D0270DC7F30A00C3F30A51029074
:10078000401A019040286BDAC3F3130040F4801B39
:100790000098924620B10023D2EB030A63EB0B0BC7
:1007A00001985946C0F14002504600F09CFA0646B6
:1007B0000D4650465946019A00F0B4FA10EB080075
:1007C0006141002487EA115284EAE7731A4340D05A
:1007D000009A62B3019A012A4FEA075215DC001B06
:1007E00061EB02014FF0004202EA0752CDE90042FC
:1007F000001C41F5801132462B4600F06DFB03B022
:10080000BDE8F08F40462146F9E7001B61EB02018D
:10081000001C41F5801300185B412018A2F5001759
:1008200047EB030140EAD570B6196D4111E06D0840
:100830004FEA360645EAC0754FEA0752001B61EBE6
:100840000201001C41F5801149084FEA30000019EF
:10085000514132462B4603B0BDE8F04F00F02DBBAE
:100860000098012240000023D0EB020263EBE0730A
:10087000009821464FEAE074B8EB000061EB0401F8
:10088000E9E783F000435BE781F0004158E72DE999
:10089000FE4F81EA030404F0004421F0004100947B
:1008A0004FF0000B23F0004350EA01045ED052EAFF
:1008B00003045BD0C3F30A54C1F30A552C44A4F2D9
:1008C000F3340194A0FB0254C1F3130141F48011ED
:1008D000C3F3130343F4801301FB024400FB034EF4
:1008E000840A970A44EA815447EA8357A4FB0768BD
:1008F00002958D0A05FB07854FEA932C04FB0C54E7
:100900002705029D4FEA065847EA1637B5EB08055A
:100910006EEB070C870E920E47EA811742EA8312AC
:10092000A7FB0201B6EB0B0164EB00042B0D43EABD
:100930000C335E1844EB1C50DA465146E7FB0201CB
:10094000C5F313044FEA0B3343EA14534FEA04325E
:10095000019C43EA0603A4F10C040294009CCDE937
:1009600000B400F0B9FA03B0BDE8F08F00200146F2
:10097000F9E72DE9F04D81EA030404F0004B21F082
:10098000004514464FF0000A23F0004150EA0502EA
:1009900020D054EA01021DD0C5F30A570246C5F320
:1009A0001303C1F31300C1F30A5640F4801543F456
:1009B0008013A7EB0608101BD64608F2FD3873EB30
:1009C000050002D308F1010801E092185B41B8F17B
:1009D000000F03DA00200146BDE8F08D00204FF43F
:1009E0008011064684460EE0171B73EB050705D3FE
:1009F000121B63EB050306434CEA010C49084FEA5E
:100A0000300092185B4150EA0107EDD152EA030031
:100A100012D082EA040083EA0501084305D0101BC6
:100A2000AB4106D20122002306E000224FF0004332
:100A300002E06FF0010253101AEB06004CEB085174
:100A400010EB0A0041EB0B01BDE8F04D00F035BAA8
:100A5000C10F80EAE0700844CA079623002100F025
:100A6000FEB996230022114600F0F9B90EB5C10F68
:100A700080EAE0700844CA07002140F233438DE861
:100A80000E000A460B4600F027FA03B000BD0EB573
:100A900040F2334102910021CDE900110A460B4694
:100AA00000F01AFA03B000BD00F0004220F0004050
:100AB000C10DC0F3160040F400007F2901DA0020C8
:100AC0007047962903DCC1F19601C84001E09639D0
:100AD0008840002AF4D04042704720F00040C10D09
:100AE000C0F3160040F400007F2901DA00207047AF
:100AF000962903DCC1F19601C840704796398840B9
:100B0000704770B5C1F30A5201F000450024C1F3EB
:100B1000130140F2FF3341F480119A4201DA0020C0
:100B200070BD40F233439A42A2F2334203DC524298
:100B300000F0E8F800E090402C43F1D0404270BD56
:100B4000C1F30A5210B5C1F3130140F2FF3341F46F
:100B500080119A4201DA002010BD40F233439A42DC
:100B6000A2F2334203DC524200F0CCF810BD9040B8
:100B700010BD00F0004230F000400AD0C10D01F578
:100B80006071C0F3160042EA0151C20840071143E8
:100B9000704700200146704730B5041E71F1000413
:100BA00004DB4FF00044404264EB0101141E73F17A
:100BB000000405DB1C464FF00043524263EB040384
:100BC0008B4208BF824230BD30B5041E71F1000473
:100BD00004DB4FF00044404264EB0101141E73F14A
:100BE000000405DB1C464FF00043524263EB040354
:100BF000994208BF904230BD01F0004330B421F06B
:100C0000004150EA010206D00A0DA2F56072C1F35C
:100C10001301002A02DC30BC00207047440F44EA74
:100C2000C104C100E01830BC00EBC25000F00EB9A6
:100C3000002801DBC0F10040002901DBC1F10041C7
:100C400081427047002801DBC0F10040002901DB30
:100C5000C1F100418842704730B50B460146002083
:100C60002022012409E021FA02F59D4205D303FA6E
:100C700002F5491B04FA02F52844151EA2F10102EF
:100C8000F1DC30BD2DE9F05F0546002092469B4621
:100C900088460646814640241BE028464146474692
:100CA000224600F02FF853465A46C01A914110D3FD
:100CB00011461846224600F016F82D1A67EB010877
:100CC0004F4622460120002100F00DF817EB0009E5
:100CD0004E41201EA4F10104DFDC484631462A467D
:100CE0004346BDE8F09F202A04DB203A00FA02F1D7
:100CF000002070479140C2F1200320FA03F319430A
:100D000090407047202A04DB203A21FA02F00021AB
:100D1000704721FA02F3D040C2F12002914008430B
:100D200019467047202A06DBCB17203A41FA02F019
:100D300043EAE07306E041FA02F3D040C2F1200238
:100D400091400843194670470268114413780160C6
:100D500018467047D160044951610449116200216D
:100D60001161114600F042B9490D0008E10F000879
:100D7000426842B1016811F8013B23B1521EC0E93B
:100D80000012184670470121C160881E70474268F2
:100D90005AB1C368016843B983688B4205D0491EC4
:100DA000521CC0E90012002070474FF0FF3070471E
:100DB0000FB4002300B589B00CA900910B996FF016
:100DC0000042CB601E4B06931E4B07930423CDE9D4
:100DD00001321D4A089202466B460020FFF7CCFA0A
:100DE00009B05DF814FB70B586B006464FF0FF30D1
:100DF0000091CDE90101002015460C4604903246D1
:100E0000694604A8FFF7D4FF02460498211825B1CB
:100E100008B1084600E020462860049800280DD05C
:100E2000002A02DD0098884208D0081B0094CDE912
:100E300001043246694604A8FFF7BAFF06B070BD48
:100E4000710D00088F0D0008E10F00080029A8BFF0
:100E50007047401C490008BF20F00100704710B4E3
:100E6000B0FA80FC00FA0CF050EA010404BF10BC98
:100E7000704749B1CCF1200421FA04F411FA0CF1C5
:100E800018BF012121430843A3EB0C01CB1D4FEAFE
:100E900000614FEA102042BF002010BC704700EBF9
:100EA000C35010440029A4BF10BC7047401C490027
:100EB00008BF20F0010010BC704710B5141E73F17C
:100EC000000408DA401C41F1000192185B411A430A
:100ED00001D120F0010010BD2DE9F04D92469B4656
:100EE00011B1B1FA81F202E0B0FA80F220329046FC
:100EF000FFF7F9FE04460F4640EA0A0041EA0B01FB
:100F000053465A46084313D0114653EA010019D0FC
:100F1000C8F140025046FFF7F5FE05460E46504622
:100F200059464246FFF7DFFE084305D0012004E0A2
:100F300020463946BDE8F08D0020054346EAE076BC
:100F40002C4337430A986305E40AA0EB080000220B
:100F5000FD0A44EA47540A3002D500200146E9E779
:100F6000010510196941DDE9084500196941BDE82D
:100F7000F04DA2E70EB540F2334202920022CDE9D5
:100F800000221346FFF7A8FF03B000BDC1F30A52C9
:100F9000C1F3130140F2FF3341F480119A4202DAA7
:100FA00000200146704740F233439A42A2F2334296
:100FB00002DC5242FFF7A6BEFFF795BE064C074D76
:100FC00006E0E06840F0010394E807009847103419
:100FD000AC42F6D3FFF7B0F8C8860008E8860008F0
:100FE000C0B24FF4F05100F0AFB900002DE9F34F5B
:100FF0008BB04FF0000801F10C000C464FF0010BD4
:1010000046460DF1080A0190626901210198904756
:10101000051E2DD0252D2CD0216A8847C0B16269CC
:10102000012101989047216A88470028F7D1411E85
:1010300062690198904700E0761CA1690B98884787
:10104000216A88470028F7D1E1690B988847DBE7D8
:10105000A1690B9888470746A84201D1761CD3E7BF
:10106000E1690B9888477F1C02D1B8F1000F6FD05F
:1010700046E1002762693D463946019890472A2893
:1010800004D162690121019890470125DFF884921B
:101090006269012101989047A0F130010A290AD222
:1010A0004F45E5DC07EB870100EB4107303FDFD41C
:1010B00045F01005ECE7E90601D46FF000476C2815
:1010C0000AD04C2814D0682815D06A280DD074286E
:1010D0001CD07A281AD01DE062690121019890473E
:1010E0006C2802D045F0040514E045F002050DE03F
:1010F00045F020050AE062690121019890476828BF
:1011000002D045F0080505E045F40065626901215B
:1011100001989047C4E9015765283DD019DC58284B
:101120007AD00CDC452837D004DC252826D041288D
:1011300031D131E046282FD047282CD12CE05B2834
:1011400077D0612828D063287CD0642823D15AE046
:10115000D0E06F2848D008DC66281DD067281BD057
:10116000692821D06E2816D127E0702845D0732831
:1011700068D0752847D078280DD14DE0A1690B982B
:101180008847054625283FF469AFE1690B988847F1
:101190006D1C3FF46AAFB3E023466A466FF001006E
:1011A0000B99FFF7E9F89EE045F040006060A80762
:1011B00023464FF0000236D43EE0E8077FF447AF05
:1011C0002068011D21600068290501D506701BE714
:1011D000290701D5068017E7A90703D5F117C0E94C
:1011E000006111E706600FE745F040006060A80766
:1011F00023464FF0080216D41EE040F60E0125EA01
:101200000100606016E045F040006060A8072346DA
:101210004FF00A0207D40FE045F040006060A807D5
:1012200008D5234610226FF001000B99AFF3008020
:1012300059E007E0234610226FF001000B99AFF34D
:10124000008050E04FF000094F464B46632802D023
:101250005B2806D040E0E80601D40120A060012709
:101260003AE062690121019890475E2805D14FF06C
:1012700001096269494601989047216939B90021FD
:101280000A46534643F82120491C0829FADBB0B32B
:10129000216969B9C11700EBD16253110AEB8301CF
:1012A00022F01F02821A01200B68904003430B605A
:1012B00062690121019890475D28E8D1B9F1000FDA
:1012C00009D00020514651F82020D24341F8202077
:1012D000401C0828F7DB02AB224600976FF00100A4
:1012E0000B99AFF3008000280CDA401C08D1BBF149
:1012F000000F05D04FF0FF300DB0BDE8F08FFFE7D5
:101300004046F9E7E90701D108F1010806444FF02A
:10131000000B79E6CCCCCC0C70B521F00043034334
:101320000CD0C1F30A550024D5EB040564EB04038B
:10133000D617AD1AB34102DB0020014670BD20185C
:1013400041EB025170BD00007F2801D9002208E066
:10135000064A02EB5002C007127800D1120902F0CF
:101360000F02012090400840704700008886000866
:1013700030B58C1810F8012B12F00F0301D110F8C2
:10138000013B120906D110F8012B03E010F8015BB4
:1013900001F8015B5B1EF9D101E001F8013B521E2F
:1013A000FBD1A142E6D3002030BD000038B5054690
:1013B0000C460121084602F013F9284600F08EFD84
:1013C0001C481D4908601D48486000208860084688
:1013D000C46000200861802048618000886180002E
:1013E000C86120200862C001486200208862284647
:1013F00000F039FE4FF4E06001F032FE0B208DF872
:10140000000002208DF8010001208DF802008DF807
:101410000300684601F0ECFD022000F045FD0122CA
:101420000221284600F016FE0121284600F04AFD60
:1014300038BD00004C240140589B0020A40100202E
:1014400021B1826842F00102826003E0826822F0EA
:1014500001028260704721B1826842F4807282602A
:1014600003E0826822F480728260704721B1826852
:1014700042F48012826003E0826822F4801282606B
:101480007047014600208A6802F004020AB1012078
:1014900000E000207047014600208A6802F0080240
:1014A0000AB1012000E000207047000030B502467C
:1014B0000020002350680F4C20400D790C6844EA4E
:1014C00005242043506090680B4C2040D1E9025421
:1014D0002C434D7944EA450420439060D06A20F4BF
:1014E00070000C7C641EE4B2234340EA0350D062D7
:1014F00030BD0000FFFEF0FFFDF7F1FFF0B5044640
:101500000D4600200021092D11DDE068A5F10A0635
:1015100006EB4607072606FA07F18843A5F10A06F7
:1015200006EB460603FA06F10843E0600CE020698A
:1015300005EB4507072606FA07F1884305EB450644
:1015400003FA06F108432061072A0FDA606B561E82
:1015500006EB86071F2606FA07F18843561E06EBA0
:10156000860605FA06F10843606322E00D2A0FDAC9
:10157000206BD61F06EB86071F2606FA07F1884365
:10158000D61F06EB860605FA06F10843206310E035
:10159000E06AA2F10D0606EB86071F2606FA07F1A0
:1015A0008843A2F10D0606EB860605FA06F108430C
:1015B000E062F0BD816841F008018160704721B1AF
:1015C000826842F4A002826003E0826822F4A002F2
:1015D00082607047816841F004018160704710B5F6
:1015E0000121082002F01CF810BD10B502F0DAF954
:1015F000082002F0F7FA02F0B3F9082002F0F2FA3C
:1016000002F0E6F9082002F0EDFA02F0B1F9082044
:1016100002F0E8FA10BD10B501F060FBFFF7E5FF3E
:10162000702000F05AF902F075F9A82000F055F981
:1016300002F070F9002000F050F902F06BF9002080
:1016400000F04BF902F066F902F068FB0A2000F0A6
:1016500070FDFFF7CAFF702000F03FF902F05AF961
:10166000BE2000F03AF902F055F9082000F035F9F3
:1016700002F050F9002000F030F902F04BF902F0CE
:101680004DFB0A2000F055FD10BD000070B5002490
:1016900002F06EF902F074F9082002F0A3FA0025B6
:1016A00013E002F05DF900F05EFD002680210B489A
:1016B00000F08AFE00B1012646EA4400C4B202F0FE
:1016C00057F900F050FD681CC5B2082DE9DB02F0A7
:1016D00057F9082002F086FA204670BD000C014040
:1016E0002DE9F04F8DB000200C900B900A900990DE
:1016F00008900790069082468346049005900290D9
:10170000039000F0D0F8502000F013FD00BF0AE075
:1017100040F2E45002F066FA5846411C1FFA81FB81
:10172000642800DB05E000F0ADF800F080008028C0
:10173000EED000BFFFF759FF712000F0CEF802F0A5
:10174000E9F8FFF7A3FF0C908DF8100002F014FAEF
:10175000FFF79CFF0B908DF8110002F00DFAFFF7D8
:1017600095FF0A908DF8120002F006FAFFF78EFF3F
:1017700009908DF8130002F0FFF9FFF787FF08903A
:101780008DF8140002F0F8F9FFF780FF07908DF84C
:10179000150002F0F1F9FFF779FF069002F007FA61
:1017A00002F0BCFA062104A800F068FA9DF81810AF
:1017B00088422AD19DF82C004AEA00004FEA002A0C
:1017C0009DF828004AEA00004FEA002A9DF824000C
:1017D0004AEA000A4FEA1A1ACDF808A04FF0000AA8
:1017E0009DF824004AEA00004FEA002A9DF82000F4
:1017F0004AEA00004FEA002A9DF81C004AEA000A63
:10180000CAF3130ACDF80CA002E000200290039066
:101810000298FFF73CF980460022144BFFF737F897
:1018200006460022124BFFF7A4F80446FFF788F99A
:10183000104908600398FFF72AF900220E4BCDE902
:101840000001FFF724F880460022094BFFF791F8CA
:1018500006460022094BFFF714F80446FFF770F91B
:10186000074908600DB0BDE8F08F00000000594046
:10187000000030413C010020000069400000494068
:101880003801002010B5FFF7B0FE712000F025F8F8
:1018900002F040F8FFF7FAFE044602F088F902F081
:1018A0003DFA204610BD10B5FFF79FFE702000F0F6
:1018B00014F802F02FF8AC2000F00FF802F02AF82C
:1018C000332000F00AF802F025F8002000F005F8B7
:1018D00002F020F802F022FA10BD2DE9F041044692
:1018E00025468027002613E002F042F800F02DFC88
:1018F00007EA050010B102F055F801E002F068F8BF
:1019000002F02EF800F021FC6806050E701CC6B22D
:10191000082EE9DB02F02CF8082002F063F902F04F
:101920002FF8082002F05EF9BDE8F08100B587B01D
:10193000012140F20C6001F073FE002001F044FE32
:101940000120ADF8180000208DF81B0006A93448CE
:1019500000F0AFFC0120ADF8180000208DF81B004E
:1019600006A9304800F0A5FC4FF4C02001900020EB
:101970008DF8080001208DF809004FF460200390D5
:101980000020049001208DF8140001A92648FFF7DB
:101990008DFD01A92548FFF789FD032301220021C0
:1019A0002148FFF7ABFD0323012208211F48FFF761
:1019B000A5FD01211C48FFF74EFD01211B48FFF743
:1019C00055FD01211848FFF73BFD1748FFF7F2FDD1
:1019D00000BF1548FFF75FFD0028FAD11248FFF756
:1019E000F9FD00BF1048FFF74CFD0028FAD1012196
:1019F0000E48FFF725FD0D48FFF7DCFD00BF0B4843
:101A0000FFF749FD0028FAD10848FFF7E3FD00BFC2
:101A10000648FFF736FD0028FAD107B000BD0000E8
:101A200000080140000C0140002401400028014052
:101A30002DE9F0470546544841682846FFF7F8F875
:101A400021D8514A11685068FEF704FE80464F497C
:101A500049684E4A1268881AFFF703F881464A48D7
:101A600001682846FEF7F6FD82464946FEF7F8FD76
:101A700007464146FEF726FE0646FFF72EF8434985
:101A80000968441878E0404881682846FFF7D0F894
:101A900021D83D4A51689068FEF7DCFD80463B49FD
:101AA00089683A4A5268881AFEF7DBFF8146364851
:101AB00041682846FEF7CEFD82464946FEF7D0FD36
:101AC00007464146FEF7FEFD0646FFF706F82F499A
:101AD0004968441850E02C48C1682846FFF7A8F828
:101AE00021D8294A9168D068FEF7B4FD804627497D
:101AF000C968264A9268881AFEF7B3FF81462248D1
:101B000081682846FEF7A6FD82464946FEF7A8FDF5
:101B100007464146FEF7D6FD0646FEF7DEFF1B49A7
:101B20008968441828E0184801692846FFF780F8BA
:101B300021D8154AD1681069FEF78CFD80461349FB
:101B40000969124AD268881AFEF78BFF81460E484F
:101B5000C1682846FEF77EFD82464946FEF780FDB5
:101B600007464146FEF7AEFD0646FEF7B6FF0749BB
:101B7000C968441800E0064C2046FEF788FF054A75
:101B800003C2A0B2BDE8F08790010020240000202D
:101B900040420F00A00000202DE9FC5F04462046D3
:101BA000FEF75FFF01902046FEF75BFF00902046A6
:101BB000FEF757FF8346294801685846FEF750FD57
:101BC00082460099FEF74CFD81460199FEF748FDDB
:101BD00007462046FEF745FF01902046FEF741FFED
:101BE00000901F4801680098FEF73AFD834601996E
:101BF000FEF736FD81462046FEF733FF0190194877
:101C000001680198FEF72CFD834617480168584685
:101C1000FEF7CEFC82464946FEF7CAFC80463946AE
:101C2000FEF7C6FC0646114801683046FEF718FD6F
:101C30000546FEF79EFF0E4A03C200220D4B0C49DB
:101C400003C9FEF7A9FF03D20020094A10605060C3
:101C5000074903C9FEF774FFBDE8FC9F4C00002054
:101C600048000020440000204000002038000020F0
:101C7000A000002000408F4000BFFEE730B50246C4
:101C80000B46FF20002113E0555C684008240BE060
:101C900000F0800525B1312585EA4005E8B201E074
:101CA0004506280E651EECB2002CF1DC4D1CE9B295
:101CB0009942E9DB30BD000000B585B00121042068
:101CC00001F0AEFC0121480701F09AFC2020ADF89C
:101CD000100000208DF8130003208DF8120004A9D5
:101CE0000B4800F0E6FA00200090019002900220DC
:101CF00003906946102000F067F80121102000F0E1
:101D000009F80021084600F089F805B000BD000080
:101D10000008014039B1084A1268012383401A4380
:101D2000054B1A6006E0044A1268012383409A4377
:101D3000014B1A607047000000740040F8B5074678
:101D40000D4616461C460121084601F049FC38465E
:101D500000F0C4F819480480194805604660102056
:101D6000174988600846C4600020086180204861E7
:101D7000400088618000C86120200862C00148627C
:101D800000208862384600F06EF94FF4E06001F000
:101D900067F90D208DF8000000208DF801008DF806
:101DA000020001208DF80300684601F021F90122AC
:101DB0000221044800F04EF9F8BD0000D6000020D2
:101DC000589B00203000024030B5002200230A4C0E
:101DD000226840F6FE748440A243D1E900452C43BA
:101DE0008D682C43CD6844EA050303FA00F42243CE
:101DF000014C226030BD00000074004008B5002294
:101E00000092054A009200F10802009B1A440092D9
:101E1000009A116008BD00000074004008B500225F
:101E20000092054A009200F11402009B1A440092AD
:101E3000009A116008BD00000074004010B5022037
:101E400000F0F2F828B1012004490870002004498C
:101E50000870022000F028F810BD000002000020E9
:101E60000300002010B54FF4007000F0DDF878B1E9
:101E70000A48007860B90A48007848B9322004F06E
:101E80000FFF01210748FFF79AFB01200449087062
:101E90004FF4007000F008F810BD000002000020B0
:101EA000030000200024014000F0805111B10349DB
:101EB000086001E0024948607047000004040240E5
:101EC0000000024021B1026842F00102026004E019
:101ED00002684FF6FE731A400260704701684FF6C1
:101EE000FE72114001600021016041608160C160AB
:101EF0004B49884208D14A490839496841F00F01E5
:101F0000474A083A51608AE045491431884208D16D
:101F100043490839496841F0F001414A083A5160A3
:101F20007DE03F492831884208D13D490839496858
:101F300041F470613A4A083A516070E038493C31E6
:101F4000884208D136490839496841F47041344A19
:101F5000083A516063E032495031884208D1304933
:101F60000839496841F470212D4A083A516056E019
:101F70002B496431884208D129490839496841F41C
:101F80007001274A083A516049E025497831884272
:101F900008D123490839496841F07061204A083A5C
:101FA00051603CE01F49884206D1011F096841F099
:101FB0000F01021F116032E01A491431884208D122
:101FC0001849091F096841F0F001164A121F1160F3
:101FD00025E014492831884208D11249091F0968AF
:101FE00041F470610F4A121F116018E00D493C3135
:101FF000884208D10B49091F096841F47041094A18
:10200000121F11600BE007495031884207D1054982
:10201000091F096841F47021024A121F11607047BC
:10202000080002400804024001460020002201F09E
:10203000805313B1054B1A6801E0054B1A6802EA98
:1020400001030BB1012000E00020704700040240B2
:10205000000002401AB103680B43036002E003680A
:102060008B430360704710B50022026847F6F07397
:102070009A430C6A8B6823430C6923434C692343BE
:102080008C692343CC6923434C6A23438C6A2343E2
:102090001A430260CB6843600B6883604B68C3607F
:1020A00010BD41607047000000B585B001210420DB
:1020B00001F0B6FA0121480701F0A2FA1020ADF8AC
:1020C000100000208DF8130003208DF8120004A9E1
:1020D0000D4800F0EEF810210B4800F080F90020C8
:1020E0000090019002900220039069460020FFF7C3
:1020F0006BFE01210020FFF70DFE00210846FFF7CF
:102100007DFE05B000BD00000008014070B504462A
:1021100006492046FEF7A4FA0646FEF7DEFC85B225
:1021200029460020FFF77AFE70BD0000CA269B44B6
:10213000704710B5044603E04FF47A7001F052FD89
:10214000201EA4F10104F7D110BD00B5012000F05C
:102150001BF8012000F018F8012000F015F801200C
:1021600000F012F800BD00B5012000F00DF80120CC
:1021700000F00AF8012000F007F8012000F004F850
:10218000012000F001F800BD014604E0002000E05D
:10219000401C0228FCD30A1EA1F10101F6D17047B0
:1021A00030B5044604254FF4302000F06FF80546A2
:1021B000042D17D10C48006940F002000A4908615B
:1021C00008464461006940F0400008614FF4302047
:1021D00000F05CF805460448006941F6FD710840CE
:1021E00001490861284630BD0020024004200B4907
:1021F000C96801F0010109B101200EE00749C96871
:1022000001F0040109B1022007E00449C96801F0A6
:10221000100109B1032000E00420704700200240B3
:102220000348006940F080000149086170470000E0
:102230000020024070B504460D460426F00200F06E
:1022400025F80646042E11D10948006940F0010026
:10225000074908612580F00200F018F80646044896
:10226000006941F6FE71084001490861304670BDC1
:102270000020024002480349486003484860704714
:102280002301674500200240AB89EFCD00B502462F
:102290000423FFF7ABFF034603E0FFF7A7FF034666
:1022A000521E012B01D1002AF7D102B9052318468D
:1022B00000BD2DE9F0410246002500260020002344
:1022C0000024002791F803C00CF00F0591F803C01B
:1022D0000CF0100CBCF1000F03D091F802C04CEAD6
:1022E000050591F800C0BCF1000F31D01468002042
:1022F0002BE04FF0010C0CFA00F3B1F800C00CEA2F
:1023000003069E4220D183004FF00F0C0CFA03F716
:10231000BC4305FA03FC4CEA040491F803C0BCF189
:10232000280F06D14FF0010C0CFA00FCC2F814C0C3
:102330000AE091F803C0BCF1480F05D14FF0010C41
:102340000CFA00FCC2F810C0401C0828D1D314605D
:10235000B1F800C0BCF1FF0F34DD546800202EE05E
:1023600000F1080C4FF0010808FA0CF3B1F800C0B6
:102370000CEA03069E4221D183004FF00F0C0CFAA9
:1023800003F7BC4305FA03FC4CEA040491F803C0CC
:10239000BCF1280F05D100F1080C08FA0CF8C2F8BE
:1023A000148091F803C0BCF1480F07D100F1080C6C
:1023B0004FF0010808FA0CF8C2F81080401C0828F9
:1023C000CED35460BDE8F0810246002093680B40F4
:1023D0000BB1012000E000207047416170470161AE
:1023E0007047002108E0002201E0531C9AB2B2F5C8
:1023F000FA7FFADB4B1CD9B28142F4DB70472DE93E
:10240000F04107460C4615461E46304600F008F9D6
:10241000042322462946384600F090F8BDE8F081B2
:1024200010B50621EC2000F047F81420FFF7D9FF83
:1024300010BD2DE9F04107460D4616460024701EDA
:1024400086B200F045FA47F0010000F07BFAB0B91F
:1024500000BF07E000F0EAF92855002000F0BEF9BF
:10246000601C84B2B442F5DB00F0E0F9285501208D
:1024700000F0B4F900F04CFA0120BDE8F081002032
:10248000FBE72DE9F04107460D46164600F020FA1D
:10249000384600F057FA68B9002404E0285D00F0DF
:1024A00051FA601C84B2B442F8DB00F031FA01202A
:1024B000BDE8F0810020FBE713B50446012201A925
:1024C0002046FFF7DEFF08B101201CBD0020FCE71D
:1024D0007FB5064614461D46012201A93046FFF786
:1024E000D0FF2A4621463046FFF7A3FF10B1012056
:1024F00004B070BD0020FBE72DE9F04180460D4699
:1025000016461F4600F0E4F9404600F01BFA284644
:1025100000F018FA68B9002404E0305D00F012FA07
:10252000601CC4B2BC42F8DB00F0F2F90120BDE847
:10253000F0810020FBE700BFFEE700002DE9FE4F21
:1025400081468A46934608200090009840F040015A
:10255000EC20FFF7B1FF00285DD04020FFF741FFDE
:102560001021EC20FFF7A8FF062201A9EC20FFF7BD
:1025700060FF9DF8044024029DF8050004432402F6
:102580009DF80600044304F4000008B144F07F44C1
:102590002046FEF76BFA07460022204BFEF7E9F9CA
:1025A000CAE900019DF8076036029DF8080006435D
:1025B00036029DF8090006433046FEF757FA0746F3
:1025C0000022164BFEF7D5F9C9E900013121EC20B4
:1025D000FFF772FF032201A9EC20FFF72AFF9DF805
:1025E00004502D029DF8050005432D029DF80600BC
:1025F000054305F4000008B145F07F452846FEF785
:1026000035FA07460022054BFEF7B3F9CBE9000186
:102610000120BDE8FE8F0020FBE7000000005940CC
:1026200038B50446002000902021EC20FFF744FF3D
:1026300000287CD02021EC20FFF73EFF2021EC2059
:10264000FFF73AFF0421EC20FFF736FF2A21EC20A8
:10265000FFF732FF0A20FFF7C4FE01236A46DF219D
:10266000EC20FFF749FF2621EC20FFF725FF01238F
:102670006A46DE21EC20FFF73FFF41200090012356
:102680006A46DF21EC20FFF737FF05200090012389
:102690006A46DE21EC20FFF72FFF43200090012344
:1026A0006A46DF21EC20FFF727FF0120FFF799FEA4
:1026B0000123621C9D21EC20FFF70AFF06200090F9
:1026C00001236A46DE21EC20FFF716FF432000902D
:1026D00001236A46DF21EC20FFF70EFF0120FFF700
:1026E00080FE0123A21C9D21EC20FFF7F1FE0720B4
:1026F000009001236A46DE21EC20FFF7FDFE432017
:10270000009001236A46DF21EC20FFF7F5FE01204F
:10271000FFF767FE0123E21C9D21EC20FFF7D8FEA6
:102720007F20009001236A46DE21EC2000E01AE0C1
:10273000FFF7E2FE4320009001236A46DF21EC20F0
:10274000FFF7DAFE0120FFF74CFE012322469D2110
:10275000EC20FFF7BDFE2C21EC20FFF7ADFE22217F
:10276000EC20FFF7A9FE38BD10B500F047F910BD09
:10277000002007E000BF00BF00BF00BF00BF00BFD8
:10278000411C88B20828F5DB7047000010B54FF4F3
:1027900080611148FFF721FEFFF7EAFF00F076F8AD
:1027A0004FF480610C48FFF71AFEFFF7E1FF4FF48A
:1027B00000610948FFF708FE08B1012400E0002489
:1027C0004FF480610448FFF708FEFFF7D1FF00F0E7
:1027D0006DF8204610BD0000000C014010B5044605
:1027E0004FF480611048FFF7F8FDFFF7C1FF2CB9E7
:1027F0004FF400610C48FFF7F0FD04E04FF4006176
:102800000948FFF7ECFDFFF7B3FF4FF4806106487E
:10281000FFF7E5FDFFF7ACFF4FF480610248FFF7DB
:10282000DCFDFFF7A5FF10BD000C014070B54FF4B3
:1028300080611548FFF7D1FDFFF79AFF00F026F8F9
:1028400000251BE04FF480610F48FFF7C8FDFFF73C
:102850008FFF6006040E4FF400610B48FFF7B4FDD4
:1028600008B144F00104FFF783FF4FF4806106488C
:10287000FFF7B3FDFFF77CFF681CC5B2082DE1DB55
:1028800000F014F8204670BD000C014008B54FF46C
:102890000060ADF8000048208DF80300694602484A
:1028A000FFF707FD08BD0000000C014008B54FF41C
:1028B0000060ADF8000003208DF8020010208DF8B4
:1028C000030069460148FFF7F4FC08BD000C014015
:1028D00010B54FF480610D48FFF781FDFFF748FF09
:1028E0004FF400610948FFF77AFDFFF741FF4FF40D
:1028F00000610648FFF771FDFFF73AFF4FF4806172
:102900000248FFF76AFDFFF733FF10BD000C0140DE
:1029100010B54FF400610A48FFF75FFDFFF728FF8D
:102920004FF480610648FFF75AFDFFF721FF4FF48F
:1029300000610348FFF753FDFFF71AFF10BD0000C9
:10294000000C014070B50446002521E04FF4806181
:102950001548FFF742FDFFF70BFF04F0800028B198
:102960004FF400611048FFF73AFD04E04FF40061B6
:102970000D48FFF732FD6006040EFFF7F9FE4FF435
:1029800080610948FFF72BFDFFF7F2FE681CC5B216
:10299000082DDBDB4FF480610348FFF71EFDFFF7D6
:1029A000E7FEFFF7F3FE70BD000C014010B50020FC
:1029B0000F4908600F48006820F470200D49086036
:1029C0000846006840F44030086000200A49C1F819
:1029D0009001022004F064F90120054908600220FA
:1029E00004F05EF900200449C1F8940110BD000014
:1029F00094012242001001400000224208B501214A
:102A0000102000F00DFE3020ADF8000010208DF8F1
:102A1000030003208DF8020069460548FFF749FCD2
:102A20000120044908600449C1F8900108BD000074
:102A300000100140940122420000224210B5002003
:102A40000F4908600F48006820F470200D490860A5
:102A50000846006840F44030086001200A49C1F887
:102A60009001022004F01CF90120054908600220B1
:102A700004F016F900200449C1F8940110BD0000CB
:102A800094012242001001400000224270B5054628
:102A900000241748006820F4702015490860084693
:102AA000006840F400200860002616E0002011496C
:102AB0000860022004F0F4F801200F49C1F89401E5
:102AC0006006040E0B488438006808B1601CC4B26C
:102AD000012004F0E5F8701CC6B2082EE6DB15B93B
:102AE000FFF7ACFF01E0FFF761FF204670BD00007B
:102AF00000100140940122420000224270B50446B9
:102B00001548006820F470201349086008460068E2
:102B100040F440300860002010490860002517E0AC
:102B2000E0090E49091F08606006040E022004F047
:102B3000B7F801200A49C1F89401022004F0B0F866
:102B4000002006490860022004F0AAF8681CC5B2FB
:102B5000082DE5DB70BD0000001001409401224209
:102B60000000224210B50F48006820F470200D4983
:102B700008600846006840F44030086001200A49B7
:102B800008600A49C1F89401042004F089F8002083
:102B900005490860042004F083F800200349C1F8C7
:102BA000940110BD00100140900122420000224219
:102BB00010B50F48006820F470200D4908600846E1
:102BC000006840F44030086000200A4908600A4963
:102BD000C1F89001042004F063F801200549086061
:102BE0000549C1F89001042004F05AF810BD000016
:102BF00000100140940122420000224210B500243E
:102C00001448006820F470201249086008460068E3
:102C100040F40020086001200F49086004F040F8EB
:102C200001200E49C1F8940104F03AF807E0601C55
:102C3000C4B2FA2C03DDFFF7BBFF012010BD06482C
:102C4000803800680028F2D10349091D086000BFE0
:102C5000F4E70000001001409001224200002242EF
:102C600008B50121042000F0DBFC0121082000F060
:102C7000D7FC0820ADF8000010208DF803000320D9
:102C80008DF8020069461148FFF713FB08210F4831
:102C9000FFF7A5FB00200E4908604FF48050ADF807
:102CA000000010208DF8030003208DF80200694613
:102CB0000848FFF7FEFA4FF480510648FFF78FFBF4
:102CC00000200549C1F8B00108BD0000000801401E
:102CD0008C012142000C01400080214208B5FEF722
:102CE0007EFC8020ADF8000010208DF8030003204A
:102CF0008DF8020069460C48FFF7DBFA80210A488C
:102D0000FFF76DFB4020ADF8000010208DF80300A8
:102D100003208DF8020069460348FFF7CAFA4021F4
:102D20000148FFF75CFB08BD000C01402DE9F047AE
:102D300003F07CF8064603F079F8804603F038F893
:102D400007463048D0E90021104603F03DF881469F
:102D50004946384603F013F82A48D0E902211046C4
:102D600003F032F881464946384603F008F8254812
:102D7000D0E90421104603F027F881464946384639
:102D800002F0FDFF1F49D1E90621104603F01CF8AF
:102D900081464946384602F0F2FF3A461AA13046CB
:102DA00002F0F6FF32461BA1404602F0F1FF40461A
:102DB00003F012F91949086008460068FDF7FEF9AA
:102DC00085B20A2015490968485500240EE01348C9
:102DD0000068015D124801F07EFB00BF40211048F1
:102DE00001F0ACFA0128F9D1601C84B2681C84425D
:102DF000EDDB0A48006801F0BDFB404603F022F815
:102E0000BDE8F087A87E002042445F4152524159FC
:102E1000000000005245504C5900000064010020A1
:102E2000003801402DE9FF5F03F000F8039002F045
:102E3000FDFF029002F0BCFF01903C480088FDF7C6
:102E400026FE064602F0C0FF80464146019802F089
:102E500096FF37480088FDF71AFE064602F0B4FFD9
:102E600080464146019802F08AFF32480068FDF72B
:102E70000EFE064602F0A8FF80464146019802F089
:102E80007EFF2D4801682D480068FDF791FB0090FA
:102E90002B4801680098FDF78BFB83462949FDF715
:102EA000DFFB8246FDF719FE1FFA80F94846FDF761
:102EB000EEFD074602F088FF06463146019802F013
:102EC0005EFF21A1019A039802F062FF20A1DDE9D3
:102ED000020202F05DFF029803F07EF81E490860CE
:102EE00008460068FDF76AF985B20A201A490968A0
:102EF000485500240EE018480068015D174801F0AD
:102F0000EAFA00BF4021154801F018FA0128F9D16A
:102F1000601C84B2681C8442EDDB0F48006801F03D
:102F200029FB029802F08EFFBDE8FF9FB800002049
:102F3000BA000020C0000020B40000203C000020A7
:102F40005800002000401C4644415441000000004D
:102F50005245504C590000006401002000380140E7
:102F600010B500F05DFA04A001F0CCFA4FF47A70CD
:102F700003F088FE10BD00004F4B0D0A000000005A
:102F800010B5FFF7EFFD5F20FFF7B8FDFFF736FE46
:102F90000020FFF77BFD0446FFF70AFE204610BD28
:102FA00010B50446FFF7DEFD5E20FFF7A7FDFFF733
:102FB00025FEE0B2FFF7A2FDFFF720FEFFF7F8FDC8
:102FC00010BD000010B5044600212046FEF77AFF30
:102FD000044801882046FFF764F801212046FEF7E7
:102FE00071FF10BDD600002000BFFEE77047000053
:102FF00070B5002100230F22C47804B3154C246857
:1030000004F4E064C4F5E064210AC1F10403CA4099
:10301000447804FA03F184781440214309010E4CEA
:103020000678A155047804F01F050124AC4005780A
:103030006D11AD0005F1E025C5F8004109E0047807
:1030400004F01F050124AC40044D0678761145F8C4
:10305000264070BD0CED00E000E400E080E100E0FF
:1030600002490143024A1160704700000000FA055E
:103070000CED00E02DE9F04124480088B0F5167F02
:1030800032DB2348007878BB22480088B0F5917F76
:1030900012DA2048008864280EDD1F480068FDF71A
:1030A00068FD06461D4A1E4BFDF7EBFB0446FDF787
:1030B000A3FD1949086017E016480088B0F59B7F0A
:1030C00012DD14480088B0F5C87F0DDA1248006898
:1030D000FDF74FFD0646114A114BFDF731FB044643
:1030E000FDF78AFD0C4908600E4801680E4800682B
:1030F000FDF75EFA0546084801682846FDF758FACC
:103100000446FFF703F8BDE8F0810000B800002096
:1031100058010020BA000020580000202D431CEB6D
:10312000E2364A3FB40000203C00002070B51E2269
:103130009449954800F062FC92484088914909887A
:1031400040EA0140914908608E48C0888D498988CD
:1031500040EA01408E4908608A48408989490989C6
:1031600040EA01408B4908608648C08985498989C1
:1031700040EA0140884908608248408A8149098ABA
:1031800040EA0140854908607E48C08A7D49898AB5
:1031900040EA0140824908607A48408B7949098BAE
:1031A00040EA01407F4908607648C08B7549898BA9
:1031B00040EA01407C4908607248408C7149098CA2
:1031C00040EA0140794908606E48C08C6D49898C9D
:1031D00040EA0140764908606A48408D6949098D96
:1031E00040EA0140734908606648C08D6549898D91
:1031F00040EA0140704908606248408E6149098E8A
:1032000040EA01406D4908605E48C08E5D49898E84
:1032100040EA01406A4908605A48408F5949098F7D
:1032200040EA0140674908605948006866490860FB
:103230005848006865490860574800686449086054
:10324000564800686349086055480068624908604C
:103250005448006861490860534800686049086044
:10326000534800685F490860524800684860524807
:103270000068886051480068C8605148006808616B
:1032800045480068401C10B143480068C8B943482D
:103290000068401C10B14148006890B9404800687F
:1032A000401C10B13E48006858B94F484749086073
:1032B0004E48474908604E48464908604D484649CF
:1032C00008604D480068FDF754FC044600224B4B53
:1032D000FDF762FC0AD948480068FDF74AFC04463D
:1032E00000224FF08043FDF76FFC03D84FF07E5073
:1032F0004149086034480068FDF73BFC0446002261
:103300003F4BFDF761FC09D92F480068FDF731FC00
:10331000044600223B4BFDF73FFC03D84FF07E50A4
:10332000294908602D480068FDF723FC0446364A09
:10333000364BFDF749FC09D328480068FDF719FC16
:103340000446334A334BFDF727FC02D23248234967
:10335000086023480068FDF70CFC04462A4A2B4B02
:10336000FDF732FC09D31E480068FDF702FC044655
:10337000254A2A4BFDF710FC02D22748184908605D
:1033800070BD00009886002004C000086400002082
:10339000680000206C0000207000002074000020F5
:1033A000780000207C0000208000002084000020A5
:1033B000880000208C000020900000209400002055
:1033C000980000205C0000203C000020400000200D
:1033D00044000020480000204C0000205000002045
:1033E00054000020900100208608C342EF38294194
:1033F00086A9403AF7879EB3380000200000E03FDE
:10340000000004400000F03FFCA9F1D24D62803F73
:103410002D431CEBE2361A3F4260653B4D62503F44
:1034200008B54F49098888B203F0FFFC4D49088070
:10343000022269464C4800F0E1FABDF80200BDF8EE
:10344000001040EA0140494908604948006849497C
:103450000860494800684949086049480068494986
:103460000860494800684949086049480068494976
:103470000860494800684949086049480068494966
:1034800008603A480068000C4749088037480088BF
:10349000488038480068000C888036480088C8801A
:1034A00036480068000C0881344800884881354857
:1034B0000068000C888133480088C8813348006860
:1034C000000C088231480088488232480068000CAD
:1034D000888230480088C88230480068000C088321
:1034E0002E48008848832F480068000C88832D48A8
:1034F0000088C8832D480068000C08842B48008889
:1035000048842B480068000C888429480088C884B7
:1035100028480068000C0885264800884885264809
:103520000068000C888524480088C8852348006806
:10353000000C088621480088488621480068000C55
:1035400088861F480088C8860648008800140887B7
:103550000448008848871E22034800F063FA08BD2B
:103560005C0000206000002004C00008640000200F
:103570003C00002068000020400000206C0000207B
:10358000440000207000002048000020740000204B
:103590004C00002078000020500000207C0000201B
:1035A0005400002080000020988600208400002025
:1035B000880000208C000020900000209400002053
:1035C000980000207047000001460020034A506820
:1035D00020F4404008435060704700000010024053
:1035E00029B1064A52690243044B5A6104E0034A76
:1035F00052698243014B5A6170470000001002403B
:1036000029B1064AD2690243044BDA6104E0034A55
:10361000D2698243014BDA6170470000001002401A
:1036200029B1064A92690243044B9A6104E0034AB5
:1036300092698243014B9A6170470000001002407A
:1036400010B500F02BF84FF4803000F0E9F800F0EE
:1036500045F90446012C20D1002000F0D5F80020C7
:1036600000F010F9A00200F001F9E003FFF7ACFF51
:103670000021200400F018F9012000F00FF900BF2C
:10368000392000F09BF80028FAD0022000F01AF947
:1036900000BF00F0B1F80828FBD110BD0F4800684A
:1036A00040F001000D490860084640680C49084098
:1036B0000A494860084600680A4908400749086006
:1036C0000846006820F4802008600846406820F41E
:1036D000FE0048604FF41F008860704700100240F1
:1036E0000000FFF8FFFFF6FE30B5002100220024A5
:1036F00000232D4D6D6805F00C0121B1042905D082
:10370000082923D105E0294D056022E0274D0560F9
:103710001FE0254D6D6805F47012234D6D6805F4AA
:103720008034022505EB92421CB9214D55430560BA
:103730000BE01D4D6D6805F400351DB11C4D554362
:10374000056002E0194D5543056002E0174D056024
:1037500000BF00BF144D6D6805F0F0010909154D5B
:103760006B5C0568DD4045600F4D6D6805F4E061F8
:10377000090A104D6B5C4568DD4085600A4D6D6837
:1037800005F46051C90A0B4D6B5C4568DD40C560AE
:10379000054D6D6805F44041890B074D6B5CC568AC
:1037A000B5FBF3F5056130BD0010024000127A0050
:1037B00000093D006B0100207B01002010B501468F
:1037C0000022002300204A11012A02D1094C23685B
:1037D00006E0022A02D1074C236A01E0054C636A25
:1037E00001F01F02012494401C400CB1012000E0B4
:1037F000002010BD001002400248406800F00C009C
:10380000704700000010024001460020034A506843
:1038100020F0F000084350607047000000100240A4
:103820001149096821F480310F4A11601146096875
:1038300021F480211160B0F5803F03D0B0F5802FD6
:103840000ED106E00849096841F48031064A11604A
:1038500007E00549096841F4A021034A116000E02E
:1038600000BF00BF7047000000100240014600206A
:10387000034A506820F4E06008435060704700003D
:103880000010024001460020034A506820F46050B6
:1038900040EAC100506070470010024001490866CC
:1038A000704700000000424202460020044B586866
:1038B00020F47C1042EA01031843014B5860704722
:1038C0000010024001460020034A506820F0030027
:1038D00008435060704700000010024038B50020D7
:1038E00000900024002500BF3120FFF767FF054648
:1038F0000098401C00900098B0F5A06F01D0002DFA
:10390000F2D03120FFF75AFF08B1012400E0002473
:10391000204638BD10B5002400F02AF800F030F839
:10392000082000F05FF900F01BF8082000F05AF9B9
:1039300001E0601C84B280210848FEF745FD08B113
:10394000642CF6DB642C01D1002010BD00F010F8CF
:10395000082000F047F90120F7E70000000C0140C3
:1039600010B540210148FEF73AFD10BD000C0140A2
:1039700010B540210148FEF730FD10BD000C01409C
:1039800008B58020ADF8000004208DF80300032066
:103990008DF8020069460248FEF78BFC08BD000066
:1039A000000C014008B58020ADF8000010208DF813
:1039B000030003208DF8020069460448FEF779FCF5
:1039C00080210248FEF70BFD08BD0000000C0140FD
:1039D00008B58020ADF8000010208DF8030003200A
:1039E0008DF8020069460448FEF763FC8021024816
:1039F000FEF7F3FC08BD0000000C014030B50346A3
:103A00000C461546002207E0184600F008F824F896
:103A100012009B1C501C82B2AA42F5DB30BD01464D
:103A2000088870472DE9F05F80468A461746B8F14E
:103A3000006F02D33348804501D3BDE8F09FFEF705
:103A400019FCA8F1006B4FEADB25CBF34909C9F556
:103A50008064A74200DC3C464DE04FF0006101EB82
:103A6000C5204A142849FFF7C9FF00260BE009EBDF
:103A70000600254931F810004FF6FF71884200D04A
:103A800003E0701C86B2A642F1DB00BFA6421BDA3F
:103A90004FF0006101EBC520FEF782FB002608E035
:103AA0003AF8160006EB0901174A22F81100701CBB
:103AB00086B2A642F4DB4FF0006101EBC5204A1448
:103AC000114900F023F804E022465146404600F038
:103AD0001DF8A74200D10FE06D1C4FF000090AEB62
:103AE000440AA044381B87B2B7F5806F02DD4FF45B
:103AF000806400E03C46B0E700BFFEF791FB00BFEA
:103B00009BE7000000000408849B00202DE9F041A1
:103B100005460E461746002407E036F814102846DE
:103B2000FEF788FBAD1C601C84B2BC42F5DBBDE82F
:103B3000F081704710B502210F2000F06DF904F0FC
:103B400035FAFEF7B1FA4FF47A73074A0749084885
:103B5000FEF7F4F80748008840F4807005490880B3
:103B60000348FFF72FFA10BDC87E002008740040FC
:103B7000300002400C04004010B5FFF7F9FE0820A9
:103B800000F030F8FFF724FF082000F02BF8FFF7D3
:103B9000E7FE082000F026F8FFF7EAFE082000F014
:103BA00021F8FFF7EDFE082000F01CF810BD10B55D
:103BB000FFF7DEFE082000F015F8FFF7F3FE0820FF
:103BC00000F010F8FFF7CCFE082000F00BF8FFF72C
:103BD000CFFE082000F006F8FFF7FAFE082000F0FC
:103BE00001F810BD10B50446A41E03E00120FEF745
:103BF000CBFA641E002CF9D110BD000008B50121DC
:103C00000820FFF70DFD4FF44060ADF800000220E2
:103C10008DF8020010208DF8030069460448FEF775
:103C200048FB4FF440610248FEF7D9FB08BD000095
:103C3000000C014010B500F001F810BD0CB50020DB
:103C4000019000903348006840F4803031490860AA
:103C500000BF3048006800F4003000900198401C1C
:103C60000190009818B90198B0F5A06FF1D12948DA
:103C7000006800F4003010B10120009001E0002045
:103C800000900098012843D12348006840F01000BC
:103C9000214908600846006820F0030008600846D3
:103CA000006840F0020008601A48406819494860FE
:103CB0000846406848600846406840F480604860B4
:103CC0000846406820F47C1048600846406840F48C
:103CD000E81048600846006840F08070086000BF47
:103CE0000C48006800F000700028F9D009484068CE
:103CF00020F00300074948600846406840F0020091
:103D0000486000BF0348406800F00C000828F9D163
:103D10000CBD0000001002400020024010B5FFF76B
:103D200057FE0820FFF75EFFFFF71AFE0820FFF797
:103D300059FFFFF737FE0820FFF754FF10BD042896
:103D400008D14FF0E021096941F004014FF0E02271
:103D5000116107E04FF0E021096921F004014FF003
:103D6000E02211617047704710B51348006840F0B9
:103D700001001149086008464068104908400E4992
:103D80004860084600680E4908400B49086008462C
:103D9000006820F4802008600846406820F4FE0097
:103DA00048604FF41F008860FFF744FF4FF0006049
:103DB0000449086010BD0000001002400000FFF838
:103DC000FFFFF6FE08ED00E070B5002400220D4B69
:103DD0000D4903C9FCF75BFD0546FCF792FE04465E
:103DE000FA2C0DDAC4F1FA00FCF732FE0646074958
:103DF000FCF768FC05460649FCF764FC05490860C9
:103E000070BD00000000244030010020000020416F
:103E100000409C45B40000203EB505460C460121FB
:103E20000220FFF7EDFBADF80450ADF80040002094
:103E3000ADF80600ADF802006946044800F014F839
:103E40000121024800F004F83EBD000000040040DB
:103E500021B1028842F00102028004E002884FF69C
:103E6000FE731A4002807047002202881D4B984260
:103E70000ED01D4B98420BD0B0F1804F08D01B4B99
:103E8000984205D01A4B984202D01A4B984204D15E
:103E90004FF68F731A404B881A43174B984207D03E
:103EA000164B984204D04FF6FF431A40CB881A4372
:103EB00002808B8883850B8803850A4B98420BD040
:103EC000094B984208D00E4B984205D00D4B9842B2
:103ED00002D00D4B984201D10B7A038601238382D5
:103EE00070470000002C01400034014000040040F5
:103EF00000080040000C004000100040001400408A
:103F00000040014000440140004801402DE9F047D5
:103F100040F22551EE4800F01EFA002814D0EC487B
:103F200000F0D4FAC6B2EB48008800F40040002844
:103F30000AD1E848008800F48040002876D00A2E94
:103F400003D00020E3490880C0E10020E149088057
:103F5000E1480078412851D1DF48007A46284DD108
:103F6000DD484078312803D10120DC4908703EE06B
:103F7000D9484078322803D10220D849087036E069
:103F8000D5484078332803D10320D44908702EE067
:103F9000D1484078342803D10420D049087026E065
:103FA000CD484078352803D10520CC4908701EE063
:103FB000C9484078362803D10620C849087016E061
:103FC000C5484078372803D10720C44908700EE05F
:103FD000C1484078382803D10820C049087006E05D
:103FE000BD484078392802D10920BC490870BB4837
:103FF000007802F03DF80020B8490870B648007813
:10400000422842D1B448007A46283ED1B24840788E
:10401000312803D10B20B14908702FE0AE48407819
:10402000322804D10C20AD49087027E034E1AA48B9
:104030004078332803D10D20A84908701EE0A64817
:104040004078342803D10E20A449087016E0A24815
:104050004078352803D10F20A04908700EE09E4813
:104060004078362803D110209C49087006E09A4811
:104070004078372802D11120984908709748007875
:1040800001F0F6FF00209549087093480078432816
:1040900031D19148007A46282DD18F484078322876
:1040A00003D116208D4908701EE08B4840783428D3
:1040B00003D118208949087016E0874840783628CF
:1040C00003D11A20854908700EE0834840783828CB
:1040D00003D11C208149087006E07F4840783028D1
:1040E00002D11E207D4908707C48007801F0C0FF95
:1040F00000207A49087078480078462835D17648FB
:104100004078692831D17448807872282DD172485E
:10411000C0785F2829D170480079752825D16E486C
:104120004079702821D16C48807964281DD16A4873
:10413000C079612819D16848007A742815D1664879
:10414000407A612811D166A000F0DCF900BF654813
:10415000006800F4E06064490843001D614908609C
:10416000BFF34F8F00BF00BFFEE75B4801F0C1FE09
:1041700081465EA1484601F09DFE074677B15DA1EC
:10418000384601F097FE054645B108225AA1286934
:1041900003F0A2FF012801D15A4908705AA14846EC
:1041A00001F091FE074647B153A1384601F082FE67
:1041B000054615B10F205349087052480078012870
:1041C0001BD153480068FCF7D4FC524A03C2524842
:1041D0000068FCF7CEFC4F4AC2E902014F48006874
:1041E000FCF7C7FC4B4AC2E904014D480068FCF7E4
:1041F000C0FC484AC2E906013FE0424800780F2867
:104200003BD141A1484601F05EFE07463AA138463F
:1042100001F050FE054600240DE02146284601F03D
:104220003DFE80463B4A02EBC402D8E90610C2E9D3
:104230000010601CC4B2042CEFDB3648D0E900212A
:104240001046FCF7D9FC324908603248D0E9022117
:104250001046FCF7D1FC304908602E48D0E9042113
:104260001046FCF7C9FC2D4908602A49D1E906210E
:104270001046FCF7C1FC2A490860002404E0002035
:1042800015490855601CC4B2124800888442F6DB08
:10429000484601F0D7FD19E00D2E06D10D480088E3
:1042A00040F480400B49088010E00A480088C0F3C1
:1042B0000D0009490E5407480088401C0549088034
:1042C00008460088C72801DD00200880BDE8F08787
:1042D000003801406001002084A300206801002014
:1042E0004F4B00000CED00E00000FA055245414440
:1042F000000000005345540042445F41525241596E
:104300000000000069010020575249544500000098
:1043100040000020A87E002044000020480000202B
:104320004C00002021B1828942F40052828104E0D5
:1043300082894DF6FF731A40828170470246002041
:10434000B1F5007F00D100BF13880B400BB10120F5
:1043500000E00020704770B50246002400230025CD
:10436000002040F66A16B14200D100BFC1F34215E9
:1043700001F01F03012606FA03F3012D02D19689ED
:10438000334006E0022D02D1168A334001E0968ABE
:1043900033400C12012606FA04F41688344013B197
:1043A0000CB1012000E0002070BDF0B503460024F0
:1043B00000260025002040F66A17B94200D100BF50
:1043C0001846C1F3421401F01F06012707FA06F54B
:1043D000012C01D10C3004E0022C01D1103000E09E
:1043E00014301AB107682F43076002E00768AF4333
:1043F0000760F0BD2DE9F04786B005460E46002463
:10440000A24600BFA1460027B08900B100BF2F46D9
:104410002C8A4CF6FF700440F08804432C82AC894F
:104420004EF6F3100440B08831890843718908437F
:104430000443AC81AC8A4FF6FF400440B08904438A
:10444000AC8201A8FFF750F91F48874202D1DDF87E
:1044500010A001E0DDF80CA0A88900F4004040B1F4
:104460000AEBCA0000EB0A1031684900B0FBF1F812
:1044700007E00AEBCA0000EB0A1031688900B0FBC4
:10448000F1F86420B8FBF0F004012009642101FB7D
:104490001089A88900F4004040B1322000EBC90027
:1044A000B0FBF1F000F00700044308E0322000EB1D
:1044B00009106421B0FBF1F000F00F0004432C81DF
:1044C00006B0BDE8F087000000380140014688884A
:1044D000C0F308007047C1F308028280704700BF34
:1044E000FEE730B502460B461478557884EA05009D
:1044F000022103E0545C60404C1CE1B25C1E8C4223
:10450000F8DC30BD0FB4054B10B503A9044A02987E
:1045100000F086FC10BC5DF814FB0000A96D0008DB
:104520005C0100200FB4084B10B504A902AA03983F
:1045300000F076FC044602A9002001F008F82046AD
:1045400010BC5DF814FB00004F550008490050EA0C
:10455000C12018BF04204A0D18BF40F0010040F2EE
:10456000FF72B2EB515F08BF40F00200012808BFA4
:104570000520704730B528B1144C031F0020216876
:104580000A4605E0084630BD9A4203D810465268F4
:10459000002AF9D1002800D041680BD00468A3EBB1
:1045A0000005A54204D11B681C440346046002E0D8
:1045B000436000E023603AB11C68D51AA54203D1DC
:1045C00015682C441C6052685A6030BD8001002080
:1045D0002DE9F74F144694B00021C4E90211159952
:1045E000079121F00045C9498D4206DC1599C4E9BF
:1045F000000117B00020BDE8F08FC549DFF814A313
:10460000A9423CDD0799C44E0029C44FC44A1599FC
:10461000534619DDFCF735F9554506D0C14AC24B62
:10462000FCF72FF9C4E900010AE04FF0D352BE4B6A
:10463000FCF727F932463B46FCF723F9C4E90001B1
:1046400017B00120BDE8F08FFCF77AF8554506D089
:10465000B44AB54BFCF774F8C4E900010AE04FF026
:10466000D352B14BFCF76CF832463B46FCF768F886
:10467000C4E9000117B04FF0FF30BDE8F08FAB493F
:10468000A942159978DB21F0004183468846A84A63
:10469000A84BFCF7FCF80022A74BFCF751F8FCF7FD
:1046A00030FA0990FCF7E2F906460F469C4A534659
:1046B000FCF7EDF843465A46FCF7E6F880468A4692
:1046C000984A994B30463946FCF7E1F82A0D012506
:1046D0000B9242465346FCF7D7F8032DC4E900017C
:1046E00039D00B98C1F30A51401A05EB4511113925
:1046F000814230DA9148C346784400EB0510CDF88A
:104700000CA00C90D0E9002330463946FCF7BFF8E6
:1047100002460B460491069058460399FCF7B1F8FF
:1047200080468A4602460B4658460399FCF7A9F88C
:10473000049B069AFCF7A5F883460C98039139462A
:10474000D0E902233046FCF7A2F85A46039BFCF757
:1047500098F86D1CBDE707980028A2BF099817B00C
:10476000BDE8F08F616881F000416160099817B081
:104770004042BDE8F08FFFE784461598C1F313016E
:10478000C0F30A50A0F2F5304FEA601800F01F069F
:10479000C6F12000139000200690079041F4801E7F
:1047A00005206D4676B1664A08EB00017A4452F85E
:1047B000213002EB8101B3404A68139922FA01F1DA
:1047C000194305E05F4908EB0002794451F82210D3
:1047D000A1FB0E27A1FB0C131A449A4234BF0123FC
:1047E000002303EB070A05EB8003D3E901B70F446D
:1047F0008F4234BF0121002193448B4411B1934572
:1048000002D903E0934501D2012100E00021C3E970
:1048100001B7514445F82010011EA0F10100C1DC90
:104820000298059F00F10050800F12900298DDE978
:1048300003568000FCF71AF9834628460D91FCF7D1
:1048400026F96FF01D02FCF767FDCDE90E01304639
:10485000FCF71DF96FF03D02FCF75EFD80468A46CD
:104860003846FCF714F96FF05D02FCF755FD07467A
:10487000424653461191FBF763FFDDE90E23FBF738
:104880005FFF5A460D9BFBF75BFF00250E465A461D
:1048900028460D9BFBF7F5FFDDE90E23FBF7F1FF43
:1048A00042465346FBF7EDFF3A46119BFBF7ECFF00
:1048B000DFF898A0244A5346FBF7E9FF07468846ED
:1048C000234A244B31462846FBF7E1FF3A4643464C
:1048D000FBF736FF074688464FF0A842534631465D
:1048E0002846FBF7D4FF3A464346FBF729FF159AC3
:1048F00012F0004F04D0129A81F0004152421292FD
:10490000C4E90001129817B0BDE8F08FFB21E93F20
:104910007CD90240FB21F93F7370032E8A19A33B17
:10492000000040543163621A61B4D03DFB2139412B
:1049300083C8C96D305FE43F0000E03F9C3E00004B
:10494000183E0000FA3D0000182D4454FB21F93DAB
:104950003326A611460B113C2DE9FF4D21F00048EE
:1049600007460C46B8F1795F08DAFCF7CAF8002868
:1049700001BF0020324904B0BDE8F08D3A4623461D
:1049800010461946FBF783FF054602462D480E46A2
:104990000B460621784400F05DF82A463346FBF7C3
:1049A00076FFDDE9022382468B4638462146FBF737
:1049B0006EFF04460F4652465B4628463146FBF7DB
:1049C00066FF22463B46FBF75CFF07468A464FF0F0
:1049D000FF3228463146FCF79FFC1B4A90450ADA15
:1049E0003A465346FBF74DFF04B00022BDE8F04DB8
:1049F000134BFBF749BF154A4245A8BFA8F5001560
:104A00004FF00004B8BF124D22462B46FBF739FF8A
:104A10000646884622462B4600200949FBF731FF0F
:104A200004460D463A46534630464146FBF729FFB9
:104A300004B022462B46BDE8F04DFBF725BF000031
:104A40000000F03FD03B00003333D33F0000E93F8C
:104A50000000D23F2DE9F0414F1E00EBC701044694
:104A6000D1E9000115461E4637F006020DD02A4650
:104A70003346FBF70CFF7F1E04EBC703D3E900238B
:104A8000FBF75EFE37F00602F1D1022F25D0042F8E
:104A900013D0062F18BFBDE8F0812A463346FBF736
:104AA000F6FED4E90A23FBF74BFE2A463346FBF712
:104AB000EEFED4E90823FBF743FE2A463346FBF714
:104AC000E6FED4E90623FBF73BFE2A463346FBF716
:104AD000DEFED4E90423FBF733FE2A463346FBF718
:104AE000D6FED4E90223FBF72BFE2A463346FBF71A
:104AF000CEFED4E90023BDE8F041FBF721BE000063
:104B00002DE9FF4D054621F0004084B00C46B0F180
:104B1000795F0BDA2846FFF719FD042808BF00F07B
:104B200097F8284608B02146BDE8F08D2A460B4686
:104B30001046FBF7ACFE06460F462A462346FBF717
:104B4000A6FE804626488A4632463B4605217844E2
:104B5000FFF780FF83461098029160B3214A224BF1
:104B600040465146FBF793FECDE900015A464046C8
:104B70005146029BFBF78BFE82468846DDE9060123
:104B80004FF0FF32FCF7C8FB52464346FBF779FE75
:104B900032463B46FBF77BFEDDE90623FBF771FE61
:104BA000DDE90023FBF76DFE08B02A462346BDE889
:104BB000F04DFBF769BE0B465A4630463946FBF7C7
:104BC00066FE084A084BFBF7BBFD42465346FBF71F
:104BD0005EFE08B02A462346BDE8F04DFBF7B0BDA7
:104BE0000E3B0000495555555555C5BF2DE9F047B9
:104BF00082460F4C10480D4E0E4F001B4FF0000820
:104C000020F007054FF0010900221146504602F03E
:104C100071F9002802D1306810B10020BDE8F0879A
:104C20003C60C4E90058C6F80090EDE7840100201C
:104C3000B4A4002080010020B0B000200122FCF7C5
:104C40006BBB0022134610461146FBF792BE0000D4
:104C5000024A00201107FCF75FBB000001FDFFFFC7
:104C600002E008C8121F08C1002AFAD17047704735
:104C7000002001E001C1121F002AFBD17047000093
:104C80000149086070470000880100202DE9FF5F9E
:104C900082B00021DDE90430020DDDF840B00343AD
:104CA00018D044F61050A2F2FF3242431514119866
:104CB00001281FD0A5EB0B00401C5FEA000A4FF053
:104CC00000064E4FDFF83891B046504615D5CAF170
:104CD000000413E0119801244AA3012801D16FEACE
:104CE0000B010298119AC0E90031C0E9024206B0F6
:104CF000BDE8F09FCBF10000DFE704460021404A09
:104D0000491842EB0450CDE9001012E0E00707D04B
:104D100032463B4640464946FBF7B9FD8046894648
:104D200032463B4610461946FBF7B1FD06460F4694
:104D30006410002CEAD1DDE90401DDE90023BAF1B9
:104D4000000F06DAFBF7A3FD42464B46FBF79FFD3B
:104D500005E0FBF70EFE42464B46FBF70AFE044613
:104D60000E460022284BFBF72FFF03D84FF0FF30F1
:104D7000014607E00022254B20463146FBF7E0FCC8
:104D8000FCF704F9102409E0002C0ADB0A220023B6
:104D9000FBF778FF039B30321A55641E50EA01027C
:104DA000F2D1641C039AC4F111031444119A012A2C
:104DB00003D0012208430DD10AE0084304D00020AB
:104DC0004FF0110B119072E7A3EB0B056D1E0DE078
:104DD0005B4504DD4FF0000205F1010504E003DA54
:104DE0004FF00002A5F10105002AECD002981199BC
:104DF000C0E90231C0E9004579E700000000144035
:104E00000000F03F300000000000F0430000E03FF1
:104E100030380A2801D20120704700207047000076
:104E20002DE9FF4F95B09B468946064600250FE2C7
:104E3000252877D100242746F84A0121059400E06F
:104E4000044316F8013F203B01FA03F01042F7D16A
:104E500030782A2811D06FF02F033078A0F130027B
:104E6000092A16D8059A44F0020402EB820203EBE9
:104E700042021044761C0590EFE759F8042B059286
:104E8000002A03DA504244F40054059044F002042E
:104E9000761C30782E2816D116F8010F44F0040441
:104EA0002A280DD06FF02F023078A0F13003092BA3
:104EB00009D807EB870302EB4303C718761CF3E717
:104EC00059F8047B761C30786C280FD006DC4C280F
:104ED00017D068280DD06A2814D104E0742810D0A7
:104EE0007A280FD10DE044F400140AE044F4801451
:104EF00001E044F440147278824202D104F5801437
:104F0000761C761C307866280BD013DC582877D0B6
:104F100009DC002875D04528F6D04628F4D047286B
:104F20001AD19DE118E0632835D0642879D065282E
:104F300012D195E1702873D008DC6728F1D0692878
:104F40006FD06E280DD06F2806D1B5E073282CD015
:104F5000752875D0782874D05A46179990476D1CDB
:104F600075E1C4F30250022809D003280DD0D9F806
:104F7000001004280DD00D6009F1040967E1D9F88B
:104F80000010EA17C1E90052F6E7D9F800100D80C9
:104F9000F2E70D70F0E719F8041B8DF800100020FF
:104FA0008DF80100EA46012003E059F804AB4FF008
:104FB000FF3061074FF0000102D40DE008F101015C
:104FC0008846B9420FDA8045F8DB1AF80810002944
:104FD000F4D108E008F1010188468142FADB1AF8B1
:104FE00008100029F6D105985B46A0EB080721467A
:104FF0003846179A00F094FA284400EB080507E0B9
:105000004DE029E10DE01AF8010B5A461799904737
:10501000B8F10108F7D25B4621463846179A13E1EA
:1050200042E00A220092C4F302524FF0000A022A20
:1050300008D059F804CB032A4FEAEC710AD00DE0EE
:1050400029E02AE009F1070121F00702F2E802C194
:10505000914609E00FFA8CFC4FEAEC71042A03D167
:105060004FFA8CFC4FEAEC71002907DA0A4600215E
:10507000DCF1000C61EB02012D2202E0220504D5D7
:105080002B228DF80420012203E0E20701D0202228
:10509000F7E7904659E00A2102E010220DE01021C6
:1050A0004FF0000A00910BE010224FF0000A44F08C
:1050B00004040827009203E008224FF0000A00923F
:1050C000C4F30252022A05D059F804CB0021032A66
:1050D00008D009E009F1070121F00702F2E802C156
:1050E000914605E01FFA8CFC042A01D10CF0FF0C5C
:1050F0004FF00008220728D5702806D0009B83F0C7
:10510000100353EA0A0305D00EE040228DF8042074
:10511000012208E05CEA010206D030228DF804206A
:105120008DF8050002229046009B83F0080353EAA5
:105130000A030AD15CEA010201D1620705D53022D7
:105140008DF804204FF001087F1E582804D034A0A9
:1051500003900EA802900DE036A0F9E75346604692
:10516000009AFBF78FFD84460398825C0298401EEC
:10517000029002705CEA0100F0D1029806A9081AB8
:1051800000F1200A600702D524F4803400E00127F2
:10519000574502DDA7EB0A0000E0002000EB0A0102
:1051A000009005984144401A0590E00306D45B4600
:1051B0002146179A059800F0B3F90544002706E048
:1051C00001A85A46C05D179990476D1C7F1C474542
:1051D000F6DBE0030CD55B462146179A059800F0F4
:1051E0009FF9054404E030205A46179990476D1CFA
:1051F0000099481E00900029F5DC08E00298029909
:105200005A460078491C0291179990476D1CBAF1D3
:105210000001AAF1010AF1DC65E1000009280100A2
:10522000303132333435363738396162636465661C
:1052300000000000303132333435363738394142DE
:10524000434445460000000000F058F90544761C30
:10525000307800287FF4ECAD19B02846BDE8F08F17
:10526000620700D4062709F1070222F0070CFCE8C8
:105270000223E14603F000485FEA080C02D00FF277
:10528000702C0DE05FEA045C02D50FF2682C07E099
:105290005FEAC47C02D00FF2602C01E0AFF2700C28
:1052A0004FF0FF3823F00043CDF850C065280CD0F4
:1052B00006DC452809D046281DD047283DD13DE0D1
:1052C000662818D067287ED138E00021112F01DB35
:1052D000112000E0781CCDE9000106A90EA8FFF717
:1052E000D5FCDDE90F010E9A03910021009207F130
:1052F000010A04914DE04FF000400097CDE9011004
:1053000006A90EA8FFF7C2FCDDE90F0203920E9B6F
:1053100011990022DDF80CA00093049211B9791CB8
:1053200000EB010AB7EB0A0004D4C0F1FF3007F12B
:10533000010A0490AAEB0700019044E0012F00DA73
:1053400001270021112F01DD112000E03846CDE9B1
:10535000000106A90EA8FFF799FCDDE90F010E9ADE
:105360000391002104910092BA4621070CD40399BD
:10537000514500DA8A46BAF1010F05DD009AAAF11B
:105380000101515C302908D0B84202DA10F1040F53
:1053900006DA0121CDE9011015E0AAF10101E9E7E2
:1053A000002805DC049901440491AAEB000102E005
:1053B000411C514500DD8A460499401A401C019069
:1053C0004FF000400290200704D40198504501DBC3
:1053D000CDF8048000208DF84F0002980DF14F07A2
:1053E000B0F1004F25D02B200E9002984FF002080C
:1053F00000280CDA404202902D200E9007E00A218E
:105400000298FBF729FC3031029007F8011DB8F132
:105410000001A8F10108F2DC02980028EFD1791E02
:105420000E980870307800F0200040F0450007F832
:10543000020D12A8C01B00F107081498007800B1F3
:10544000012000EB0A01019801EBE071059841444D
:10545000401A401E0590E00306D45B462146179A89
:10546000059800F05DF805441498007818B15A4684
:10547000179990476D1CE00324D55B462146179A87
:10548000059800F04DF805441CE00498002807DB5F
:10549000DDE90301884203DD0098405C179901E0D3
:1054A000179930205A469047049805F10105401C91
:1054B00004900198401E019004D12E205A4617995D
:1054C00090476D1CBAF10001AAF1010ADDDC05E08C
:1054D00017F8010B5A46179990476D1CB8F1000157
:1054E000A8F10108F4DC5B462146179A0598ABE663
:1054F0002D0000002B000000200000002DE9F041ED
:10550000044600251E461746880404D405E03946A3
:105510002020B0476D1C641EF9D52846BDE8F081F7
:105520002DE9F041044600251E469046C80301D5EA
:10553000302700E02027880404D505E0414638469E
:10554000B0476D1C641EF9D52846BDE8F0810A6895
:10555000531C0B60107070472DE9F04FADF6842D91
:105560000020CDF87C0ACDF8700ACDF86C0A002531
:105570008146CDF8680A42F21070CDF8640A002026
:10558000CDF8600ACDF85C0A00274FF6FF78CDF819
:10559000500AF748007828BB0120F549087000241C
:1055A0001EE0601CFBF754FAF2490290FBF78AF800
:1055B000F1490390FBF754F8F0490490FAF7F8FF2B
:1055C0000590FBF7D6FACDE9060102F017FDCDE90B
:1055D0000801FBF711FBEA4941F82400601C84B282
:1055E000962CDEDB00241EE00020CDF8540A0026B5
:1055F0000FE006EB4600C0EBC61004EB8000E1496B
:1056000051F82010DDF8540A0844CDF8540A701CF3
:1056100086B2102EEDDBDDF8540A0009DA4941F8B4
:105620002400601C84B2B4F5FA7FDDDB4FF4FA7419
:1056300008E0A4F5FA70D44951F8200041F824009C
:10564000601C84B240F28A208442F2DB4FF4E174A1
:1056500018E0CD4850F82400B84205DDCA4830F8BB
:10566000240087B2CDF8704AC74850F8240040455E
:1056700006DAC54830F824001FFA80F8CDF86C4AE5
:10568000601C84B240F226208442E2DBBF480760FF
:10569000A7EB0800CDF8500A3846FBF7E2F9039073
:1056A000FBF767FABA4ABB4BCDE90401FBF7EFF809
:1056B0000022B94BCDE90601FBF7E9F8CDE9080175
:1056C000FBF73EFA80B2B5490860DDF8700AB0F524
:1056D000F57F56DDDDF8700AB0F5FA7F51DADDF8B6
:1056E0006C0AB0F5FA7F4CDBDDF86C0AB0F5FF7F91
:1056F00047DA002426E0A44850F82400A0EB080074
:10570000A14941F82400084650F82400002802DC92
:10571000002041F82400A7EB0800FBF799F99A490B
:10572000099051F82400FBF793F99D490790FAF787
:1057300097FF08900999FAF7C5FF0AA941F82400D4
:10574000601C84B240F28A208442D4DB0020954958
:10575000086002240AE00AA850F824109148006862
:10576000FAF726FF8F490860601C84B2B4F5FA7F0F
:10577000F1DB8C4801688C48FAF76CFF8B490860B4
:1057800006E000208A4908608A4800688749086066
:105790008948007800287AD087480078801E092838
:1057A0006AD2DFE800F0056919692D694169550081
:1057B0007E4800687F490860084600687F490860A5
:1057C0007C490868FBF7D5F902460B46CDE908018C
:1057D0007BA0FEF797FE4FE074480068754948606B
:1057E000084640687849086072494868FBF7C1F983
:1057F00002460B46CDE9080171A0FEF783FE3BE0AF
:105800006A4800686B498860084680686F4908608C
:1058100068498868FBF7ADF902460B46CDE90801F7
:1058200067A0FEF76FFE27E0604800686149C86026
:105830000846C068664908605E49C868FBF799F980
:1058400002460B46CDE908015DA0FEF75BFE13E0C2
:105850005648006857490861084600695D49086074
:1058600054490869FBF785F902460B46CDE9080162
:1058700053A0FEF747FE00BF00BF00204E4908704E
:10588000FDF7CEFD00E002E053A0FEF73BFE002452
:105890002DE00020564941F82400CDF8740A264630
:1058A0001FE0394951F82600FBF7D2F8344A089036
:1058B000DDF8740A52F820100898FAF7D1FE099022
:1058C0004B4850F824100998FAF772FE484941F8FD
:1058D0002400701C86B2DDF8740A401C80B2CDF83A
:1058E000740A04F19600B042DBDC601C84B2B4F5AB
:1058F000FA7FCEDB4FF4BE7427E0DDF8600AFBF7D9
:10590000A7F809903A4850F824100998FBF790F945
:1059100006D2374951F82400FBF7C6F8CDF8600AE3
:10592000DDF85C0AFBF794F80990314850F8241030
:105930000998FBF787F906D22D4951F82400FBF7A7
:10594000B3F8CDF85C0A601C84B2B4F5FA7FD4DBFE
:10595000DDF85C1ADDF8600A401ACDF8580ADDF867
:10596000580A002802DC0020CDF8580A642457E0C9
:10597000D500002000001643DA0FC940DA0FC93FF6
:10598000D4860020A4010020FC900020C400002048
:10599000B4D934E70C684A3F00408F40C000002073
:1059A0000000C842CC00002000504347C80000203F
:1059B000D00000209001002020000020880000205E
:1059C00025660D0A000000008C00002090000020D9
:1059D0009400002098000020506172616D6574652C
:1059E000725F736176696E675F6F6B0D0A0000000E
:1059F0002C890020DDF8680AFBF72AF80990944802
:105A000050F824100998FBF713F907D2904951F880
:105A10002400FBF749F8CDF8680A2546601C84B2DB
:105A2000B4F5BE7FE6DB8B480580642415E0DDF825
:105A3000640AFBF70DF80990854850F8241009987E
:105A4000FBF700F907D2824951F82400FBF72CF844
:105A5000CDF8640AA146601C84B2AC42E7DB7E4804
:105A6000A0F80090DDF8641ADDF8680AA0EB010ADE
:105A7000BAF1000F01DC4FF0000A784800780128E5
:105A80006AD1002076490860DDF8500AFAF7E9FF8C
:105A900007905046FAF7DCFF06900799FAF712FED6
:105AA00070490890FAF7DCFD6F490990FBF7CAF8D6
:105AB00012D8B5F5917F0FDBB5F59B7F0CDCFDF7B8
:105AC000AFFC0120694908704FF47A7001F0DAF8F0
:105AD0000020674908703FE066480068FBF749F816
